{
  "transactions": [
    {
      "hash": "0xc44a3c3492df389376af2b1784e887f9f91558a1e583f4647cbc3e9a66525f6e",
      "transactionType": "CREATE",
      "contractName": "Counter",
      "contractAddress": "0x1a26E43B6AA0f93C7f63e92ed301839b441A64e0",
      "function": null,
      "arguments": null,
      "transaction": {
        "from": "0x616bae74Eb9659eD49a9EC684740C9A4b93Fd8E8",
        "gas": "0x21de9",
        "value": "0x0",
        "input": "0x6080604052348015600f57600080fd5b5060f78061001e6000396000f3fe6080604052348015600f57600080fd5b5060043610603c5760003560e01c80633fb5c1cb1460415780638381f58a146053578063d09de08a14606d575b600080fd5b6051604c3660046083565b600055565b005b605b60005481565b60405190815260200160405180910390f35b6051600080549080607c83609b565b9190505550565b600060208284031215609457600080fd5b5035919050565b60006001820160ba57634e487b7160e01b600052601160045260246000fd5b506001019056fea2646970667358221220ed0b12754639921067865fe696a95f6706edf6f71a8624ba37f3c33cf7c5cf0b64736f6c634300081b0033",
        "nonce": "0x0",
        "chainId": "0xa869"
      },
      "additionalContracts": [],
      "isFixedGasLimit": false
    },
    {
      "hash": "0x15738e3d146dabbe1a32a8d884fa5b08b2eb7d364411e622137a993ad3c03d2a",
      "transactionType": "CALL",
      "contractName": "Counter",
      "contractAddress": "0x1a26E43B6AA0f93C7f63e92ed301839b441A64e0",
      "function": "setNumber(uint256)",
      "arguments": [
        "10"
      ],
      "transaction": {
        "from": "0x616bae74Eb9659eD49a9EC684740C9A4b93Fd8E8",
        "to": "0x1a26E43B6AA0f93C7f63e92ed301839b441A64e0",
        "gas": "0xeaab",
        "value": "0x0",
        "input": "0x3fb5c1cb000000000000000000000000000000000000000000000000000000000000000a",
        "nonce": "0x1",
        "chainId": "0xa869"
      },
      "additionalContracts": [],
      "isFixedGasLimit": false
    },
    {
      "hash": "0x4e2f6a655b85c4130880d48a4d3cff5496fd849ba2d3290b18a6ef780f1b62f0",
      "transactionType": "CALL",
      "contractName": "Counter",
      "contractAddress": "0x1a26E43B6AA0f93C7f63e92ed301839b441A64e0",
      "function": "increment()",
      "arguments": [],
      "transaction": {
        "from": "0x616bae74Eb9659eD49a9EC684740C9A4b93Fd8E8",
        "to": "0x1a26E43B6AA0f93C7f63e92ed301839b441A64e0",
        "gas": "0x8dec",
        "value": "0x0",
        "input": "0xd09de08a",
        "nonce": "0x2",
        "chainId": "0xa869"
      },
      "additionalContracts": [],
      "isFixedGasLimit": false
    }
  ],
  "receipts": [
    {
      "status": "0x1",
      "cumulativeGasUsed": "0x1a0ed",
      "logs": [],
      "logsBloom": "0x00000000000000000000000000000000000000000000000000000000000000000000000000000000000000000000000000000000000000000000000000000000000000000000000000000000000000000000000000000000000000000000000000000000000000000000000000000000000000000000000000000000000000000000000000000000000000000000000000000000000000000000000000000000000000000000000000000000000000000000000000000000000000000000000000000000000000000000000000000000000000000000000000000000000000000000000000000000000000000000000000000000000000000000000000000000",
      "type": "0x2",
      "transactionHash": "0xc44a3c3492df389376af2b1784e887f9f91558a1e583f4647cbc3e9a66525f6e",
      "transactionIndex": "0x0",
      "blockHash": "0x0a5781b2d2a03330c61bd4e8fd3120550bfc2c93ba840f2a63e15ddcb7edb016",
      "blockNumber": "0x22b32ad",
      "gasUsed": "0x1a0ed",
      "effectiveGasPrice": "0x6b0627e22",
      "from": "0x616bae74Eb9659eD49a9EC684740C9A4b93Fd8E8",
      "to": null,
      "contractAddress": "0x1a26E43B6AA0f93C7f63e92ed301839b441A64e0"
    },
    {
      "status": "0x1",
      "cumulativeGasUsed": "0x24ad3",
      "logs": [],
      "logsBloom": "0x00000000000000000000000000000000000000000000000000000000000000000000000000000000000000000000000000000000000000000000000000000000000000000000000000000000000000000000000000000000000000000000000000000000000000000000000000000000000000000000000000000000000000000000000000000000000000000000000000000000000000000000000000000000000000000000000000000000000000000000000000000000000000000000000000000000000000000000000000000000000000000000000000000000000000000000000000000000000000000000000000000000000000000000000000000000",
      "type": "0x2",
      "transactionHash": "0x15738e3d146dabbe1a32a8d884fa5b08b2eb7d364411e622137a993ad3c03d2a",
      "transactionIndex": "0x1",
      "blockHash": "0x0a5781b2d2a03330c61bd4e8fd3120550bfc2c93ba840f2a63e15ddcb7edb016",
      "blockNumber": "0x22b32ad",
      "gasUsed": "0xa9e6",
      "effectiveGasPrice": "0x6b0627e22",
      "from": "0x616bae74Eb9659eD49a9EC684740C9A4b93Fd8E8",
      "to": "0x1a26E43B6AA0f93C7f63e92ed301839b441A64e0",
      "contractAddress": null
    },
    {
      "status": "0x1",
      "cumulativeGasUsed": "0x2b193",
      "logs": [],
      "logsBloom": "0x00000000000000000000000000000000000000000000000000000000000000000000000000000000000000000000000000000000000000000000000000000000000000000000000000000000000000000000000000000000000000000000000000000000000000000000000000000000000000000000000000000000000000000000000000000000000000000000000000000000000000000000000000000000000000000000000000000000000000000000000000000000000000000000000000000000000000000000000000000000000000000000000000000000000000000000000000000000000000000000000000000000000000000000000000000000",
      "type": "0x2",
      "transactionHash": "0x4e2f6a655b85c4130880d48a4d3cff5496fd849ba2d3290b18a6ef780f1b62f0",
      "transactionIndex": "0x2",
      "blockHash": "0x0a5781b2d2a03330c61bd4e8fd3120550bfc2c93ba840f2a63e15ddcb7edb016",
      "blockNumber": "0x22b32ad",
      "gasUsed": "0x66c0",
      "effectiveGasPrice": "0x6b0627e22",
      "from": "0x616bae74Eb9659eD49a9EC684740C9A4b93Fd8E8",
      "to": "0x1a26E43B6AA0f93C7f63e92ed301839b441A64e0",
      "contractAddress": null
    }
  ],
  "libraries": [],
  "pending": [],
  "returns": {},
  "timestamp": 1729711213,
  "chain": 43113,
  "commit": "15c1f94"
}