{
  "transactions": [
    {
      "hash": "0xdcfc2c89a141d1dbab2336e6c4e593e9a274ea4f18c667ea6e81eb99b77c5a74",
      "transactionType": "CALL",
      "contractName": null,
      "contractAddress": "0x0B38975ded42102e870717D52ceABF3647f830C4",
      "function": "setSenderForSourceChain(uint64,address)",
      "arguments": [
        "14767482510784806043",
        "0xe95e883b7d453d90F30b4fBf185152316976AdAA"
      ],
      "transaction": {
        "from": "0x616bae74Eb9659eD49a9EC684740C9A4b93Fd8E8",
        "to": "0x0B38975ded42102e870717D52ceABF3647f830C4",
        "gas": "0xfb06",
        "value": "0x0",
        "input": "0xded394a3000000000000000000000000000000000000000000000000ccf0a31a221f3c9b000000000000000000000000e95e883b7d453d90f30b4fbf185152316976adaa",
        "nonce": "0x4",
        "chainId": "0xa869"
      },
      "additionalContracts": [],
      "isFixedGasLimit": false
    }
  ],
  "receipts": [
    {
      "status": "0x1",
      "cumulativeGasUsed": "0xb5be",
      "logs": [],
      "logsBloom": "0x00000000000000000000000000000000000000000000000000000000000000000000000000000000000000000000000000000000000000000000000000000000000000000000000000000000000000000000000000000000000000000000000000000000000000000000000000000000000000000000000000000000000000000000000000000000000000000000000000000000000000000000000000000000000000000000000000000000000000000000000000000000000000000000000000000000000000000000000000000000000000000000000000000000000000000000000000000000000000000000000000000000000000000000000000000000",
      "type": "0x2",
      "transactionHash": "0xdcfc2c89a141d1dbab2336e6c4e593e9a274ea4f18c667ea6e81eb99b77c5a74",
      "transactionIndex": "0x0",
      "blockHash": "0xf93acbe0c49a893cd897c363ac2e23639db1be6544be95c4c17b4a389eaf058a",
      "blockNumber": "0x22b773a",
      "gasUsed": "0xb5be",
      "effectiveGasPrice": "0x5d21dba01",
      "from": "0x616bae74Eb9659eD49a9EC684740C9A4b93Fd8E8",
      "to": "0x0B38975ded42102e870717D52ceABF3647f830C4",
      "contractAddress": null
    }
  ],
  "libraries": [],
  "pending": [],
  "returns": {},
  "timestamp": 1729828532,
  "chain": 43113,
  "commit": "1191043"
}