{
  "transactions": [
    {
      "hash": "0xef7948c5b1e916aaca18ff47ef8a11d5bbe82831020868588d786b88459c969e",
      "transactionType": "CALL",
      "contractName": null,
      "contractAddress": "0xe95e883b7d453d90F30b4fBf185152316976AdAA",
      "function": "setReceiverForDestinationChain(uint64,address)",
      "arguments": [
        "16281711391670634445",
        "0x0B38975ded42102e870717D52ceABF3647f830C4"
      ],
      "transaction": {
        "from": "0x616bae74Eb9659eD49a9EC684740C9A4b93Fd8E8",
        "to": "0xe95e883b7d453d90F30b4fBf185152316976AdAA",
        "gas": "0x10a25",
        "value": "0x0",
        "input": "0x3f3b7a6f000000000000000000000000000000000000000000000000e1f4423f1bf587cd0000000000000000000000000b38975ded42102e870717d52ceabf3647f830c4",
        "nonce": "0x4",
        "chainId": "0x13882"
      },
      "additionalContracts": [],
      "isFixedGasLimit": false
    }
  ],
  "receipts": [
    {
      "status": "0x1",
      "cumulativeGasUsed": "0x15a0b",
      "logs": [
        {
          "address": "0x0000000000000000000000000000000000001010",
          "topics": [
            "0x4dfe1bbbcf077ddc3e01291eea2d5c70c2b422b415d95645b9adcfd678cb1d63",
            "0x0000000000000000000000000000000000000000000000000000000000001010",
            "0x000000000000000000000000616bae74eb9659ed49a9ec684740c9a4b93fd8e8",
            "0x000000000000000000000000915a2284d28bd93de7d6f31173b981204bb666e6"
          ],
          "data": "0x0000000000000000000000000000000000000000000000000004f71e6f8ff42800000000000000000000000000000000000000000000000000533a5c36bcdc6d00000000000000000000000000000000000000000000047a229d7409d4e51d5f000000000000000000000000000000000000000000000000004e433dc72ce84500000000000000000000000000000000000000000000047a22a26b2844751187",
          "blockHash": "0xa6f0e77ba899d3d85273ebd340f0fde8461c11f6019b6340a798abc04d5ade5e",
          "blockNumber": "0xcf75df",
          "transactionHash": "0xef7948c5b1e916aaca18ff47ef8a11d5bbe82831020868588d786b88459c969e",
          "transactionIndex": "0x2",
          "logIndex": "0x4",
          "removed": false
        }
      ],
      "logsBloom": "0x00000000000000000010000000000000000000000000002000000000000000000000000000000000000000000000000000008000000000000000000000000000000000000000000010000000000000800000000000000000000100000000000000000000000000000000000000000000000000000000000080000000000000000000000000000000000000000000000000000000000000000000000000010000200000000000000000000000000000000000000000000000000000000000004000000000000000000001000000000000000002000000000000100000000000000000000000000000000000000000000000000000400000000000000000100000",
      "type": "0x2",
      "transactionHash": "0xef7948c5b1e916aaca18ff47ef8a11d5bbe82831020868588d786b88459c969e",
      "transactionIndex": "0x2",
      "blockHash": "0xa6f0e77ba899d3d85273ebd340f0fde8461c11f6019b6340a798abc04d5ade5e",
      "blockNumber": "0xcf75df",
      "gasUsed": "0xb5fb",
      "effectiveGasPrice": "0x6fc23ac07",
      "from": "0x616bae74Eb9659eD49a9EC684740C9A4b93Fd8E8",
      "to": "0xe95e883b7d453d90F30b4fBf185152316976AdAA",
      "contractAddress": null
    }
  ],
  "libraries": [],
  "pending": [],
  "returns": {},
  "timestamp": 1729839878,
  "chain": 80002,
  "commit": "1191043"
}