{
  "transactions": [
    {
      "hash": "0xf07975091a7fbfe3fab4bd8ba6d61fb45bddbf15e09abe655306ebd2d63ac668",
      "transactionType": "CALL",
      "contractName": null,
      "contractAddress": "0xe95e883b7d453d90F30b4fBf185152316976AdAA",
      "function": "setReceiverForDestinationChain(uint64,address)",
      "arguments": [
        "16281711391670634445",
        "0x0B38975ded42102e870717D52ceABF3647f830C4"
      ],
      "transaction": {
        "from": "0x616bae74Eb9659eD49a9EC684740C9A4b93Fd8E8",
        "to": "0xe95e883b7d453d90F30b4fBf185152316976AdAA",
        "gas": "0x8ffc",
        "value": "0x0",
        "input": "0x3f3b7a6f000000000000000000000000000000000000000000000000e1f4423f1bf587cd0000000000000000000000000b38975ded42102e870717d52ceabf3647f830c4",
        "nonce": "0x6",
        "chainId": "0x13882"
      },
      "additionalContracts": [],
      "isFixedGasLimit": false
    },
    {
      "hash": "0xca2e5fed9f5693636895b4afa7bf746881828a822b962c6b57b1e65efeb90a10",
      "transactionType": "CALL",
      "contractName": null,
      "contractAddress": "0xe95e883b7d453d90F30b4fBf185152316976AdAA",
      "function": "setGasLimitForDestinationChain(uint64,uint256)",
      "arguments": [
        "16281711391670634445",
        "200000"
      ],
      "transaction": {
        "from": "0x616bae74Eb9659eD49a9EC684740C9A4b93Fd8E8",
        "to": "0xe95e883b7d453d90F30b4fBf185152316976AdAA",
        "gas": "0xf984",
        "value": "0x0",
        "input": "0x5dc2594e000000000000000000000000000000000000000000000000e1f4423f1bf587cd0000000000000000000000000000000000000000000000000000000000030d40",
        "nonce": "0x7",
        "chainId": "0x13882"
      },
      "additionalContracts": [],
      "isFixedGasLimit": false
    }
  ],
  "receipts": [
    {
      "status": "0x1",
      "cumulativeGasUsed": "0x1b9db",
      "logs": [
        {
          "address": "0x0000000000000000000000000000000000001010",
          "topics": [
            "0x4dfe1bbbcf077ddc3e01291eea2d5c70c2b422b415d95645b9adcfd678cb1d63",
            "0x0000000000000000000000000000000000000000000000000000000000001010",
            "0x000000000000000000000000616bae74eb9659ed49a9ec684740c9a4b93fd8e8",
            "0x0000000000000000000000006dc2dd54f24979ec26212794c71afefed722280c"
          ],
          "data": "0x0000000000000000000000000000000000000000000000000002d8268aa1384f000000000000000000000000000000000000000000000000001f916fb8367fdf00000000000000000000000000000000000000000000039f1e09369661fa33ac000000000000000000000000000000000000000000000000001cb9492d95479000000000000000000000000000000000000000000000039f1e0c0ebcec9b6bfb",
          "blockHash": "0xb8227ca5c4a93b2aeb5d4266674a5adcf961166761fb03fb5ae9072a1c6b93b3",
          "blockNumber": "0xcf7652",
          "transactionHash": "0xf07975091a7fbfe3fab4bd8ba6d61fb45bddbf15e09abe655306ebd2d63ac668",
          "transactionIndex": "0x3",
          "logIndex": "0x6",
          "removed": false
        }
      ],
      "logsBloom": "0x00000000000000000000000000000000000000000000002000000000000000000000000000000000000000000000000000008000000000000000000000000000000000000000000010000000000000800000000000000000000100080000000000000000000000000000000000000000000000000000000080000000000000020000000000000000000000000040000000000000000000000000000000010000200000000000000000000000000000000000000000000000000000000000004000000000000000000001000000000000000000000000000000100000000000000000000000000000000000000000000000000000000000000000000000100000",
      "type": "0x2",
      "transactionHash": "0xf07975091a7fbfe3fab4bd8ba6d61fb45bddbf15e09abe655306ebd2d63ac668",
      "transactionIndex": "0x3",
      "blockHash": "0xb8227ca5c4a93b2aeb5d4266674a5adcf961166761fb03fb5ae9072a1c6b93b3",
      "blockNumber": "0xcf7652",
      "gasUsed": "0x683f",
      "effectiveGasPrice": "0x6fc23ac00",
      "from": "0x616bae74Eb9659eD49a9EC684740C9A4b93Fd8E8",
      "to": "0xe95e883b7d453d90F30b4fBf185152316976AdAA",
      "contractAddress": null
    },
    {
      "status": "0x1",
      "cumulativeGasUsed": "0x26e81",
      "logs": [
        {
          "address": "0x0000000000000000000000000000000000001010",
          "topics": [
            "0x4dfe1bbbcf077ddc3e01291eea2d5c70c2b422b415d95645b9adcfd678cb1d63",
            "0x0000000000000000000000000000000000000000000000000000000000001010",
            "0x000000000000000000000000616bae74eb9659ed49a9ec684740c9a4b93fd8e8",
            "0x0000000000000000000000006dc2dd54f24979ec26212794c71afefed722280c"
          ],
          "data": "0x0000000000000000000000000000000000000000000000000004edd09406f246000000000000000000000000000000000000000000000000001cb9492d8f2bdf00000000000000000000000000000000000000000000039f1e0c0ebcec9b6bfb0000000000000000000000000000000000000000000000000017cb789988399900000000000000000000000000000000000000000000039f1e10fc8d80a25e41",
          "blockHash": "0xb8227ca5c4a93b2aeb5d4266674a5adcf961166761fb03fb5ae9072a1c6b93b3",
          "blockNumber": "0xcf7652",
          "transactionHash": "0xca2e5fed9f5693636895b4afa7bf746881828a822b962c6b57b1e65efeb90a10",
          "transactionIndex": "0x4",
          "logIndex": "0x7",
          "removed": false
        }
      ],
      "logsBloom": "0x00000000000000000000000000000000000000000000002000000000000000000000000000000000000000000000000000008000000000000000000000000000000000000000000010000000000000800000000000000000000100080000000000000000000000000000000000000000000000000000000080000000000000020000000000000000000000000040000000000000000000000000000000010000200000000000000000000000000000000000000000000000000000000000004000000000000000000001000000000000000000000000000000100000000000000000000000000000000000000000000000000000000000000000000000100000",
      "type": "0x2",
      "transactionHash": "0xca2e5fed9f5693636895b4afa7bf746881828a822b962c6b57b1e65efeb90a10",
      "transactionIndex": "0x4",
      "blockHash": "0xb8227ca5c4a93b2aeb5d4266674a5adcf961166761fb03fb5ae9072a1c6b93b3",
      "blockNumber": "0xcf7652",
      "gasUsed": "0xb4a6",
      "effectiveGasPrice": "0x6fc23ac00",
      "from": "0x616bae74Eb9659eD49a9EC684740C9A4b93Fd8E8",
      "to": "0xe95e883b7d453d90F30b4fBf185152316976AdAA",
      "contractAddress": null
    }
  ],
  "libraries": [],
  "pending": [],
  "returns": {},
  "timestamp": 1729840124,
  "chain": 80002,
  "commit": "1191043"
}